:1000000001308A00592900000A108A100A1182075B
:100010000034003400340034003400340034003440
:100020000034FE340934093409340934FE34003410
:1000300081348134813481347E340034913491347C
:1000400091349134FF34003401340134FF340134ED
:100050000134003481348334853489349134A134BB
:10006000C13481340034FE3409340934093409348C
:10007000FE34003400340034003400347E348134E3
:1000800081348134FF3400348134813481348134CB
:100090007E34003400341034103410340034003412
:1000A000FE340934093409340934FE3400347F3411
:1000B0008034803480347F3400346134913491341E
:1000C00081347E340034FE3409340934093409346F
:1000D000FE34003400340034003400349134913460
:1000E00091349134FF3400347E348134813481344E
:1000F000FF34003400340034003400347E34813462
:100100008134813481347E3400347F3480348034CF
:100110008034403400347E348134813481348134FD
:100120007E340034003400340034003461349134BF
:10013000913491348E34003461349134913491345B
:100140008E3400349134913491349134FF3400343E
:100150008E34513431341134FF3400340E341134C0
:1001600011341134FF340034C334243418342434AB
:10017000C33400349134913491349134FF340034D9
:1001800000340034003400346E34913491349134AE
:100190004234003410341034103400348E3451346E
:1001A00031341134FF34003401340134FF3401346C
:1001B000013400340034003400340034003400349E
:1001C00000340A108A100A118207203420342034A7
:1001D0004D3461347434723469347A3420343834B0
:1001E0007834383400340A108A100A11FA3E0318A1
:1001F0008A0A820048346534633468346F342034AA
:1002000070346F3472342034433448342D344934DC
:100210004E3443340034273084008313000803191C
:100220001E290630F800F701F70B1429F80B1329E3
:100230007B30F700F70B1A29800B112908002830B2
:10024000A7000B21642905110830F80027290000B8
:10025000F8173F29F813A90C03180515031C0511FD
:1002600078173F297813F80B2B293629000005153C
:100270000130F80078163F297812F80B3A29A73098
:100280008400840B41294429F81B2A29781B322930
:10029000781A3C290800F130A90023210800B03069
:1002A000A90023212708A90023212808A900232128
:1002B0008B29840183131F3083050515A001A2013A
:1002C000A10107309F001F294B21831686011030A2
:1002D000650083128601A0012008093C031C7429D3
:1002E00005140510A00A6C29A601D430A500A401AC
:1002F000DC30A3004B21A7012708E120A70AF70063
:10030000A90023210D302702031D7C290130A700FD
:100310000230A8004F29A7012708F320A70AF700F9
:10032000A900232110302702031D8C29A0012008D9
:10033000073C031CBE2985140514851005102608EA
:10034000A2002508A10022082402031CBC29031DC9
:10035000AD29230821020318BC292208FA0021082C
:100360000420F80086000230A7000B2105140510B8
:10037000A10A0319A20AA329A00A9729230803198D
:10038000A403A30325080319A603A503A308031DBB
:10039000D229A408031DD229A401DC30A300A601A0
:0803A000D430A500962963008A
:02400E000A3F67
:00000001FF
;PIC16F628A
;CRC=5895  CREATED="23-feb.-15 21:56"
