:1000000003308A00E92B00000A108A100A118207C7
:1000100028340C34013406340A108A100A1182077D
:100020000C34203420342034203449346E34673486
:10003000723465347334653420346C3461340A347A
:1000400000340A108A100A11820720342034203428
:1000500020342034203443346C34613476346534B5
:1000600000340A108A100A1182070C34203420341C
:1000700020342034203443346C3461347634653495
:100080003A3400340A108A100A1182070C342034E2
:1000900043346C34613476346534203461346E34E6
:1000A00074346534723469346F3472343A340034E1
:1000B0000A108A100A11820720342A3420340034AE
:1000C0000A108A100A1182070C3420344E34753419
:1000D000653476346134203463346C34613476347E
:1000E00065343A3400340A108A100A1182070C343D
:1000F00043346C34613476346534203469346E347E
:1001000063346F34723472346534633474346134FC
:1001100000340A108A100A1182070C3452346534F4
:10012000703469347434613420346C346134203474
:1001300063346C346134763465343A3400340A10F4
:100140008A100A1182070C3443346C3461347634DB
:1001500065342034633461346D346234693461341D
:100160006434613400340A108A100A1182070C3496
:1001700020344E344F342034433441344D344234EF
:10018000493441344434413400340A108A100A118D
:1001900082070C342034203443346C346134763498
:1001A0006534203463346F347234723465346334AC
:1001B000743461340A3400340A108A100A11820738
:1001C0002034203420344D34613474347234693432
:1001D0007A34203438347834383400340A108A10B1
:1001E0000A11F53E03188A0A82000C3420342034A8
:1001F000203442346C346F34713475346534613476
:1002000064346F340A3400340A148A100A118207E5
:10021000203420346534733470346534723461347E
:10022000203435346D3469346E3400340A148A1045
:100230000A1182070C3453346534673475346E34D4
:1002400064346F3473343D34203425344C34753485
:100250002034203420342034003447308400831389
:100260000008031941290130F800F701F70B36297E
:10027000F80B35294A30F700F70B3C293F29800B52
:10028000332908004E1846290612472906168316F8
:1002900006128312CE184E2986124F29861683160F
:1002A000861283124E1956290613572906178316EC
:1002B00006138312CE195E2986135F2986178316CB
:1002C0008613000083120514831605106729831214
:1002D00005108316051083120800CF018316061639
:1002E00000308312061A0130CF04831686160030C0
:1002F0008312861A0130F7000310F70D7708CF0438
:100300008316061700308312061B0130F700F70D25
:10031000F70DFC30F7057708CF04831686170030F9
:100320008312861B0130F700F70DF70DF70DF8303B
:10033000F7057708CF044F08F8000800831605106A
:1003400085100511831285108316851006168616F2
:1003500006178617831205158316051100008312F0
:10036000051483160510000083126D217808CE0055
:10037000051083160510000083120514831605105E
:10038000000083126D217808CD000510831605103A
:10039000061286120613861383124E0EF700F030F3
:1003A000F70577084D04F8007808CD00CD1FDA294D
:1003B0008316A629CB08031DDF298510E0298514A3
:1003C00083168510000083120511831605110000A5
:1003D000831205108316051083124C0ECD000F30CA
:1003E000CD054D08CE0042214C080F39CD00CE007E
:1003F0004221080083160612861206138613051082
:10040000851005118312851083168510831205113E
:100410008316051183120510831605100F30831201
:10042000C7002D210130BD003D08033C031C202ADC
:100430000330CE0042210530C7002D21BD0A142A09
:100440000230CE0042210530C7002D21BD013D08FC
:10045000033C031C342A3D080420BE00CB013E08A7
:10046000CC009E21BD0A272AF62B1030C100F701CF
:10047000FA01BE0CBD0C031C432A3F08F707031802
:10048000FA0A4008FA07FA0CF70CF90CF80CC10B41
:10049000392A0800F701F8013F0803104018F70750
:1004A000F70CF80CC018F707F70CF80C4019F70711
:1004B000F70CF80CC019F707F70CF80C401AF707FF
:1004C000F70CF80CC01AF707F70CF80C401BF707ED
:1004D000F70CF80CC01BF707F70CF80C0800480BDA
:1004E000722A752A4030C900762AC90101304702B4
:1004F000C90749088038CA00CB014A08CC009E21B0
:1005000008004608073A03198F2A0B3A0319942A60
:10051000063A03199C2A023A0319A22AA72A013093
:10052000C700C8006F22AD2ACB010130CC009E214C
:100530000230C7002D21AD2A0130C7000230C800AB
:100540006F22AD2ACB011030CC009E21AD2A0130A4
:10055000CB004608CC009E21AD2A08006430C700BD
:100560002D2110308600831606148312061CBB2A28
:100570000730F8003B2B831686148312861CC32A8F
:100580000830F8003B2B831606158312061DCB2A74
:100590000930F8003B2B831686158312861DD32A5B
:1005A0000A30F8003B2B2030860083160614831295
:1005B000061CDD2A0430F8003B2B831686148312B8
:1005C000861CE52A0530F8003B2B8316061583129E
:1005D000061DED2A0630F8003B2B83168615831284
:1005E000861DF52A0B30F8003B2B40308600831621
:1005F00006148312061CFF2A0130F8003B2B8316D9
:1006000086148312861C072B0230F8003B2B8316BE
:1006100006158312061D0F2B0330F8003B2B8316A3
:1006200086158312861D172B0C30F8003B2B80306B
:100630008600831606148312061C212B2A30F8002C
:100640003B2B831686148312861C292B0030F8005E
:100650003B2B831606158312061D312B2330F80021
:100660003B2B831686158312861D392B0D30F8001F
:100670003B2B1430F80008004108F8014002031831
:10068000442B4008F700502BF7010830C200C00D82
:10069000F70D410877020318F700F80DC20B472B3E
:1006A000080078083E08C0006430C1003C23770889
:1006B000BE0078083030031D642BBF1C6B2BBF19A4
:1006C0006B2B3F1A2030672BBF113F123F14F807E6
:1006D0007808C60081223E08C0000A30C1003C23D1
:1006E0007708BE0078083030031D7C2BBF19802BA3
:1006F0003F1C802B3F1A2030F8077808C600812263
:100700003030BE073E08C6008122EC2DC50104082A
:10071000C4004510831B45143E0EF038C000C007CE
:10072000E23EC100323EC3003E080F39C107C10797
:10073000C307E93EC200C207C2073D0E0F39C20718
:10074000C307C20DC30DC309C30D3D080F39C3074D
:10075000C00D0730BF000A30C307C203031CAC2B17
:10076000C207C103031CB02BC107C003031CB42B79
:10077000C007BF03031CB82B3F308400831307302E
:100780004405441384074330040203194417000846
:10079000F700031DD32B441BD32B441AE52BC4199C
:1007A000D32B2030D62BC41544123030F707BE01AE
:1007B0000408BD003E10831B3E147708C60081224A
:1007C0003D08840083133E188317840A441FC32BFB
:1007D000F12E840183131F30830583168E15831237
:1007E000B20107309F00A001A101FA290F30831642
:1007F0008600831286018316850183128501AF016D
:100800002F08043C031C122C2A302F07840083136A
:100810002F0883169B009C131C141A088000831257
:10082000AF0A002C2B082A072C072D07343C03188D
:10083000492CAF012F08033C0318492C2F088316BD
:100840009B009A019C131C1583120B08F7008B1355
:10085000831655309D00AA309D009C149C182E2CA8
:100860001C11770883128B04AF012F08023C031878
:10087000472C2A302F07840083132F0883169B00F0
:100880009C131C141A0880008312AF0A352CAF0A7F
:100890001A2CB201AF012F08033C031C5D2C2A3037
:1008A0002F07840083132F0883169B009C131C14AE
:1008B0001A0880008312AF0A4B2CBE012A08BD0023
:1008C0000330C000E830BF0035227908BE00780848
:1008D000BD002B08BF006430C0004A227808BD0765
:1008E0000318BE0A2C08BF000A30C0004A2278084C
:1008F000BD070318BE0A2D083D07B3003E08B4002B
:100900000318B40ABD013D080C20003803198C2CD3
:10091000BD0AC6008122832CBD013D08212000387C
:100920000319962CBD0AC60081228D2C0430BD000F
:10093000FA30C7002D21BD0B982CBD013D08312098
:1009400000380319A72CBD0AC60081229E2CAF01D6
:100950002F08033C031CF12CAE227808B0003008AD
:10096000233C031DB52C1430B0003008143C03198F
:10097000F02C0230BD009630C7002D21BD0BBB2CE2
:1009800030082A3C031DD82C0130B200BD013D08BF
:10099000422000380319D02CBD0AC6008122C72C82
:1009A0000430BD00FA30C7002D21BD0BD22C9D2C88
:1009B00026302F07840083133008800006302F076D
:1009C000BD00C7000230C8006F22BD013D0858209D
:1009D00000380319EF2CBD0AC6008122E62CAF0AAD
:1009E000A82C3208013A0319FC2C033A0319522DA2
:1009F000013A03198D2D1B2EBE012608BD000330C0
:100A0000C000E830BF0035227908BE007808BD007C
:100A10002708BF006430C0004A227808BD070318C9
:100A2000BE0A2808BF000A30C0004A227808BD0765
:100A30000318BE0A29083D07B9003E08BA0003188A
:100A4000BA0A39083302031D3E2D3A083402031D49
:100A50003E2D0230B200BD013D0860200038031970
:100A6000352DBD0AC60081222C2D0430BD00FA3080
:100A7000C7002D21BD0B372D9D2C502DBD013D08EC
:100A80007320BD0AF700C600812211303D02031D0C
:100A90003F2D0430BD00FA30C7002D21BD0B4B2D7A
:100AA000492C1D2EBE012608BD000330C000E830D1
:100AB000BF0035227908BE007808BD002708BF00B6
:100AC0006430C0004A227808BD070318BE0A28080F
:100AD000BF000A30C0004A227808BD070318BE0ACA
:100AE00029083D07B5003E08B6000318B60A0330D2
:100AF000B200BD013D088920BD0AF700C600812271
:100B000011303D02031D7A2D0430BD00FA30C700BC
:100B10002D21BD0B862D9D2C1D2EBE012608BD004E
:100B20000330C000E830BF0035227908BE007808E5
:100B3000BD002708BF006430C0004A227808BD0706
:100B40000318BE0A2808BF000A30C0004A227808ED
:100B5000BD070318BE0A29083D07B7003E08B800C4
:100B60000318B80A37083502031D082E3808360264
:100B7000031D082EAF012F08033C031CF52D263062
:100B80002F07840083130008BD002F0883169B00E5
:100B900083123D0883169A009C131C1583120B08C0
:100BA000F7008B13831655309D00AA309D009C14CE
:100BB0009C18D82D1C11770883128B0426302F0720
:100BC000840083130008BD000C30C60081223D085C
:100BD000BE001B30BF00512B0230BD00FA30C700F1
:100BE0002D21BD0BEE2DAF0ABB2DBD013D089F2071
:100BF00000380319FF2DBD0AC6008122F62D0430EE
:100C0000BD00FA30C7002D21BD0B012E492C192E35
:100C1000BD013D08B32000380319122EBD0AC600DD
:100C20008122092E0430BD00FA30C7002D21BD0BF2
:100C3000142E492C1D2E1D2E1D2EBE012608BD0072
:100C40000330C000E830BF0035227908BE007808C4
:100C5000BD002708BF006430C0004A227808BD07E5
:100C60000318BE0A2808BF000A30C0004A227808CC
:100C7000BD070318BE0A29083D07B9003E08BA009F
:100C80000318BA0A39083302031D9D2E3A083402AC
:100C9000031D9D2EB101043083169B0001309A0084
:100CA0009C131C1583120B08F7008B138316553009
:100CB0009D00AA309D009C149C185C2E1C11770886
:100CC00083128B04BD013D08C520003803196C2E2A
:100CD000BD0AC6008122632EBD013D08DC2000381C
:100CE0000319762EBD0AC60081226D2E831685114A
:100CF00083128515AE227808B0003008143C031822
:100D00007A2E8316851183128511043083169B0079
:100D10009A019C131C1583120B08F7008B13831682
:100D200055309D00AA309D009C149C18952E1C11D6
:100D3000770883128B04492C032FB10ABD013D08AB
:100D4000732000380319A82EBD0AC60081229F2EE9
:100D50000430BD00FA30C7002D21BD0BAA2E31088A
:100D6000043C0318032FBD013D08EE200038031991
:100D7000BD2EBD0AC6008122B42EBD013D0804214E
:100D800000380319C72EBD0AC6008122BE2E0930C5
:100D9000BD006F30C7002D21BD0BC92E0130B6003C
:100DA0002D30B500B508031DD82EB6080319022F43
:100DB0000930BD006F30C7002D21BD0BDA2EBD01FB
:100DC0003D081621BD0AF700C60081220B303D0206
:100DD000031DE02E103084003608BE003508BD002B
:100DE000862B0E30BD003D081621BD0AF700C60057
:100DF000812212303D02031DF32E35080319B6037C
:0C0E0000B503D22EB101492CFF2B63007A
:02400E00193F58
:00000001FF
;PIC16F628A
;CRC=224D  CREATED="19-nov.-14 19:56"
