:1000000001308A005D2900000A108A100A11820757
:1000100028340C34013406340A108A100A1182077D
:100020000C3400340A108A100A11820750346134EB
:100030007334733477346F34723464343A34003444
:100040000A108A100A11820745344534503452345C
:100050004F344D3420342534753400340A108A105E
:100060000A1182074E3475346D34653472346F343E
:100070003A34253475340034283084008313000862
:10008000031950280130F800F701F70B4528F80B49
:1000900044284A30F700F70B4B284E28800B4228A3
:1000A00008002F0EF039F7000F30060577048600A0
:1000B000000006145B28061008000608F700060E6C
:1000C0000F39F800080083160610861006118312F7
:1000D00086100F3083160605F03886008312061549
:1000E0000000061400005D207808AF000610000034
:1000F000061400005D207808AE0006100F3083164D
:100100000605860083122F0EF700F030F7057708FA
:100110002E04F8007808AE00AE1B69282C1C86104F
:100120002C18861400000611000006102D0EAE00DB
:100130000F30AE052E08AF0051202D080F39AE004C
:10014000AF00512008000F30831606058600061008
:100150008610061183128610061106100F30A800B3
:100160003C200130A5002508033C031CBF280330B8
:10017000AF0051200530A8003C20A50AB32802306A
:10018000AF0051200530A8003C20A5012508033C04
:10019000031CD32825080420A600AC012608AD00C6
:1001A0006320A50AC6286929290BD728DA284030F8
:1001B000AA00DB28AA0101302802AA072A088038F1
:1001C000AB00AC012B08AD00632008002708073AFC
:1001D0000319F4280B3A0319F928063A03190129DF
:1001E000023A031907290C290130A800A900D420DC
:1001F0001229AC010130AD0063200230A8003C2080
:1002000012290130A8000230A900D4201229AC0123
:100210001030AD00632012290130AC002708AD007A
:100220006320122908002808F801270203181B2957
:100230002708F7002729F7010830A900A70DF70DB7
:10024000280877020318F700F80DA90B1E290800EB
:1002500078082508A7006430A80013217708A500B6
:1002600078083030031D3B29A61C4229A6194229D3
:10027000261A20303E29A61126122614F8077808DF
:10028000A700E6202508A7000A30A8001321770858
:10029000A50078083030031D5329A6195729261CBC
:1002A0005729261A2030F8077808A700E6203030B2
:1002B000A5072508A700E6200800840183131F3046
:1002C000830583168E1514308312A00007309F001B
:1002D000A32883169B0196309A009C131C15831249
:1002E0000B08F7008B13831655309D00AA309D0034
:1002F0009C149C1879291C11770883128B040130F7
:1003000083169B009A009C131C1583120B08F700A0
:100310008B13831655309D00AA309D009C149C18A9
:100320008F291C11770883128B04023083169B00DF
:1003300009309A009C131C1583120B08F7008B13CD
:10034000831655309D00AA309D009C149C18A62948
:100350001C11770883128B04033083169B00023034
:100360009A009C131C1583120B08F7008B1383163D
:1003700055309D00AA309D009C149C18BD291C116D
:10038000770883128B04F030831685008601831270
:100390008601323083169B009C131C141A088312AA
:1003A000A100013083169B009C131C141A088312B1
:1003B000A200023083169B009C131C141A0883129F
:1003C000A300033083169B009C131C141A0883128D
:1003D000A400A50125080C2000380319F329A50A5B
:1003E000A700E620EA290230A8000130A900D420A5
:1003F000A50125081220A50AF700A700E62009306C
:100400002502031DF9290130A8000230A900D420DB
:10041000A50125082020A50AF700A700E62007303F
:100420002502031D092A2108A5001B30A60028214A
:100430000430A500FA30A8003C20A50B1A2A14307D
:10044000A00001308500831605168312051E2A2A96
:100450000130A000831685168312851E312A0230D2
:10046000A000831605178312051F382A0330A00049
:10047000831685178312851F3F2A0A30A000023099
:100480008500831605168312051E482A0430A00035
:10049000831685168312851E4F2A0530A000831609
:1004A00005178312051F562A0630A00083168517EC
:1004B0008312851F5D2A0B30A0000430850083164F
:1004C00005168312051E662A0730A00083168516BE
:1004D0008312851E6D2A0830A0008316051783122B
:1004E000051F742A0930A000831685178312851F03
:1004F0007B2A0C30A0000830850083160516831275
:10050000051E842A0E30A000831685168312851AD4
:10051000A001831605178312051F902A0F30A00033
:10052000831685178312851F972A0D30A000200897
:100530000F3C031CC62AFA30A8003C2020080A3CC5
:100540000318A42A0830860020080A3C03188601F4
:10055000A50125080C2000380319B22AA50AA70016
:10056000E620A92A0130A800A900D420A501250869
:100570002E20A50AF700A700E62007302502031D5C
:10058000B72A2008A5001B30A60028211F2A6300D7
:02400E00183F59
:00000001FF
;PIC16F628A
;CRC=FCA9  CREATED="06-nov.-14 21:53"
