:1000000002308A00FE2A00000A108A100A118207B4
:1000100028340C34013406340A108A100A1182077D
:100020000C3400340A108A100A11820749346E34E5
:100030006734723465347334653420346C3461341D
:1000400000340A108A100A11820743346C34613478
:100050007634653400340A108A100A11820743345A
:100060006C346134763465343A3400340A108A10C2
:100070000A1182072A3400340A108A100A118207F2
:1000800043346C34613476346534203469346E34EE
:1000900063346F347234723465346334743461346D
:1000A00000340A108A100A11820742346C346F340B
:1000B000713475346534613464346F3400340A103B
:1000C0008A100A11820765347334703465347234CF
:1000D0006134203435346D3469346E3400340A10A0
:1000E0008A100A11820753346534673475346E34CC
:1000F00064346F3473343D3425344C3475340034F7
:100100000A108A100A11820743346C346134763441
:100110006534203463346F3472347234653463343C
:100120007434613400340A108A100A1182074D3485
:1001300061347434723469347A3420343834783425
:10014000383400340A108A100A11820743346C34A0
:10015000613476346534203461346E3474346534FB
:10016000723469346F3472343A3400340A108A10AD
:100170000A1182074E347534653476346134203484
:1001800063346C346134763465343A3400340A10A4
:100190008A100A1182075234653470346934743419
:1001A000613420346C346134203463346C34613411
:1001B000763465343A3400340A108A100A11820702
:1001C00043346C34613476346534203463346134C0
:1001D0006D346234693461346434613400340A103B
:1001E0008A100A1182074E344F342034433441348C
:1001F0004D344234493441344434413400343D3088
:10020000840083130008031913290130F800F70153
:10021000F70B0829F80B07294A30F700F70B0E29CE
:100220001129800B05290800440EF039F7000F3022
:10023000060577048600000006141E290610080033
:100240000608F700060E0F39F8000800831606109E
:1002500086100611831286100F3083160605F038BB
:10026000860083120615000006140000202178087D
:10027000C400061000000614000020217808C30006
:1002800006100F308316060586008312440EF70011
:10029000F030F70577084304F8007808C300C31B63
:1002A0002C29411C861041188614000006110000FC
:1002B0000610420EC3000F30C3054308C4001421CA
:1002C00042080F39C300C400142108000F30831600
:1002D0000605860006108610061183128610061188
:1002E00006100F30BD00FF200130B3003308033C7F
:1002F000031C82290330C40014210530BD00FF20F7
:10030000B30A76290230C40014210530BD00FF2055
:10031000B3013308033C031C962933080420B400BE
:10032000C1013408C2002621B30A89290C2B1030E0
:10033000B700F701FA01B40CB30C031CA52935086A
:10034000F7070318FA0A3608FA07FA0CF70CF90C43
:10035000F80CB70B9B290800F701F80135080310CA
:100360003618F707F70CF80CB618F707F70CF80C67
:100370003619F707F70CF80CB619F707F70CF80C55
:10038000361AF707F70CF80CB61AF707F70CF80C43
:10039000361BF707F70CF80CB61BF707F70CF80C31
:1003A00008003E0BD429D7294030BF00D829BF010F
:1003B00001303D02BF073F088038C000C10140083E
:1003C000C200262108003C08073A0319F1290B3A1C
:1003D0000319F629063A0319FE29023A0319042AD9
:1003E000092A0130BD00BE00D1210F2AC101013010
:1003F000C20026210230BD00FF200F2A0130BD00BF
:100400000230BE00D1210F2AC1011030C2002621C6
:100410000F2A0130C1003C08C20026210F2A080023
:1004200001308500831605168312051E1A2A013035
:10043000F8009A2A831685168312851E222A023016
:10044000F8009A2A831605178312051F2A2A0330FB
:10045000F8009A2A831685178312851F322A0A30DC
:10046000F8009A2A02308500831605168312051EAD
:100470003C2A0430F8009A2A831685168312851EBA
:10048000442A0530F8009A2A831605178312051F9F
:100490004C2A0630F8009A2A831685178312851F86
:1004A000542A0B30F8009A2A04308500831605166A
:1004B0008312051E5E2A0730F8009A2A83168516D5
:1004C0008312851E662A0830F8009A2A83160517BB
:1004D0008312051F6E2A0930F8009A2A83168517A1
:1004E0008312851F762A0C30F8009A2A083085007E
:1004F000831605168312051E802A2A30F8009A2AD0
:10050000831685168312851E882A0030F8009A2AE1
:10051000831605178312051F902A2330F8009A2AA4
:10052000831685178312851F982A0D30F8009A2AA2
:100530001430F8000800BB010408BA003B10831B0C
:100540003B14340EF038B600B607E23EB700323E38
:10055000B90034080F39B707B707B907E93EB80043
:10056000B807B807330E0F39B807B907B80DB90D7A
:10057000B909B90D33080F39B907B60D0730B50001
:100580000A30B907B803031CC12AB807B703031C14
:10059000C52AB707B603031CC92AB607B503031C4F
:1005A000CD2A35308400831307303A053A13840787
:1005B0003930040203193A170008F700031DE82A2E
:1005C0003A1BE82A3A1AFA2ABA19E82A2030EB2A02
:1005D000BA153A123030F707B4010408B3003410EA
:1005E000831B34147708BC00E32133088400831391
:1005F00034188317840A3A1FD82A732D8401831371
:100600001F30830583168E1501308312A600A701C3
:10061000A90107309F006629F03083168500860106
:100620008312860183169B019C131C141A088312E3
:10063000AE00013083169B009C131C141A08831211
:10064000AF00023083169B009C131C141A088312FF
:10065000B000033083169B009C131C141A088312ED
:10066000B100043083169B009C131C141A08F80078
:1006700083123210781832142F082E0730073107F2
:10068000343C0318DE2B83169B010A309A009C131E
:100690001C1583120B08F7008B13831655309D0031
:1006A000AA309D009C149C18532B1C1177088312B0
:1006B0008B04013083169B000B309A009C131C1591
:1006C00083120B08F7008B13831655309D00AA3058
:1006D0009D009C149C186A2B1C11770883128B04B4
:1006E000023083169B000C309A009C131C15831259
:1006F0000B08F7008B13831655309D00AA309D0020
:100700009C149C18812B1C11770883128B040330D6
:1007100083169B000D309A009C131C1583120B0846
:10072000F7008B13831655309D00AA309D009C1452
:100730009C18982B1C11770883128B0404308316A5
:100740009B009A019C131C1583120B08F7008B1356
:10075000831655309D00AA309D009C149C18AE2B2A
:100760001C11770883128B0483169B019C131C14A5
:100770001A088312AE00013083169B009C131C14D0
:100780001A088312AF00023083169B009C131C14BE
:100790001A088312B000033083169B009C131C14AC
:1007A0001A088312B100043083169B009C131C149A
:1007B0001A08F8008312321078183214B4012E0887
:1007C000B3000330B600E830B50097217908B400D3
:1007D0007808B3002F08B5006430B600AC21780863
:1007E000B3070318B40A3008B5000A30B600AC21CC
:1007F0007808B3070318B40A31083307A000340897
:10080000A1000318A10A32187A2DB30133080C2075
:10081000003803190F2CB30ABC00E321062C033067
:10082000BD000130BE00D121B301330812200038D1
:1008300003191E2CB30ABC00E321152C0530BD00A2
:100840000230BE00D121B301330821200038031942
:100850002D2CB30ABC00E321242CC830BD00FF209E
:10086000A901A70110227808A8002808143C031940
:10087000BF2CFA30BD00FF202808233C0319322C7E
:1008800028082A3C0319DC2D2908FC3E0318BF2C3C
:10089000043E962F0130A9002808AA00B3013308AE
:1008A0000C2000380319582CB30ABC00E3214F2C4C
:1008B0000530BD000130BE00D121B30133082B202B
:1008C000B30AF700BC00E32106303302031D5E2C9F
:1008D0000630BD000230BE00D1212A30BC00E32129
:1008E000322CBF2C0230A9002808AB000730BD0015
:1008F0000230BE00D121B30133083620003803197D
:10090000852CB30ABC00E3217C2C322CBF2C033095
:10091000A9002808AC000830BD000230BE00D1217B
:10092000B30133083620003803199A2CB30ABC00EF
:10093000E321912C322CBF2C2808AD000930BD00DA
:100940000230BE00D121B30133083620003803192C
:10095000AD2CB30ABC00E321A42C6430BD00FF2001
:100960002708FC3E0318BE2C043E8E2FC02CBE2C44
:10097000FF2DBE2C712EBE2CBA2EBE2CBF2C322CBD
:10098000B4012A08B3000330B600E830B50097215F
:100990007908B4007808B3002B08B5006430B600BD
:1009A000AC217808B3070318B40A2C08B5000A3044
:1009B000B600AC217808B3070318B40A2D08330732
:1009C000A2003408A3000318A30A22082002031D72
:1009D000EF2C23082102031DEF2C7A2D792DA60A76
:1009E000B30133080C2000380319FA2CB30ABC00F9
:1009F000E321F12C0130BD00BE00D121B301330849
:100A00003C20B30AF700BC00E32110303302031D81
:100A1000FF2C0430B300FA30BD00FF20B30B0B2DC8
:100A20002608043C0318792DB30133080C20003844
:100A300003191E2DB30ABC00E321152D0330BD00A0
:100A40000130BE00D121B301330851200038031911
:100A50002D2DB30ABC00E321242D0230BD00BE00C1
:100A6000D121B30133085F20003803193B2DB30AAD
:100A7000BC00E321322D0930B3006F30BD00FF20F0
:100A8000B30B3D2D0130A5002D30A400A408031D9B
:100A90004C2DA5080319782D0930B3006F30BD0027
:100AA000FF20B30B4E2DB30133080C20003803197F
:100AB0005D2DB30ABC00E321542D0130BD00BE0002
:100AC000D121B30133086F20B30AF700BC00E32142
:100AD00009303302031D622D103084002508B40054
:100AE0002408B3009B2A24080319A503A403462D58
:100AF000A601122B043083169B0001309A009C1330
:100B00001C1583120B08F7008B13831655309D00BC
:100B1000AA309D009C149C188B2D1C117708831201
:100B20008B04B30133080C20003803199B2DB30A42
:100B3000BC00E321922D0130BD00BE00D121B301E4
:100B400033088020B30AF700BC00E3210E303302E3
:100B5000031DA02D0330BD000230BE00D121B30122
:100B600033089320B30AF700BC00E3210A303302B4
:100B7000031DB02D08308600A60110227808A800B9
:100B80002808143C0318BD2D8601043083169B00F1
:100B90009A019C131C1583120B08F7008B13831604
:100BA00055309D00AA309D009C149C18D52D1C1119
:100BB000770883128B04122BA9010130A700B3011F
:100BC00033080C2000380319E92DB30ABC00E321D7
:100BD000E02D0130BD00BE00D121B3013308A220B9
:100BE00000380319F72DB30ABC00E321EE2D0430C1
:100BF000B300FA30BD00FF20B30BF92D322CB40145
:100C00002A08B3000330B600E830B5009721790810
:100C1000B4007808B3002B08B5006430B600AC21EE
:100C20007808B3070318B40A2C08B5000A30B600D8
:100C3000AC217808B3070318B40A2D083307A200C3
:100C40003408A3000318A30A22082002031D502E13
:100C500023082102031D502EA9010230A700B30171
:100C600033080C2000380319392EB30ABC00E321E5
:100C7000302E0230BD000130BE00D121B301330857
:100C8000B62000380319482EB30ABC00E3213F2EDA
:100C90000430B300FA30BD00FF20B30B4A2E322CD3
:100CA000B30133080C20003803195A2EB30ABC00D4
:100CB000E321512E0130BD00BE00D121B301330824
:100CC0003C20B30AF700BC00E32110303302031DBF
:100CD0005F2E0430B300FA30BD00FF20B30B6B2E43
:100CE000122BB4012A08B3000330B600E830B50077
:100CF00097217908B4007808B3002B08B500643058
:100D0000B600AC217808B3070318B40A2C08B50064
:100D10000A30B600AC217808B3070318B40A2D08CE
:100D20003307A2003408A3000318A30AA901033063
:100D3000A700B30133080C2000380319A32EB30A0F
:100D4000BC00E3219A2E0130BD00BE00D121B301C9
:100D50003308C720B30AF700BC00E3211030330288
:100D6000031DA82E0430B300FA30BD00FF20B30BE2
:100D7000B42E322CB4012A08B3000330B600E83098
:100D8000B50097217908B4007808B3002B08B500A6
:100D90006430B600AC217808B3070318B40A2C08F5
:100DA000B5000A30B600AC217808B3070318B40ABE
:100DB0002D083307A4003408A5000318A50A240849
:100DC0002202031D6B2F25082302031D6B2F8316A0
:100DD0009B0183122A0883169A009C131C15831208
:100DE0000B08F7008B13831655309D00AA309D0029
:100DF0009C149C18F92E1C11770883128B04013067
:100E000083169B0083122B0883169A009C131C15D3
:100E100083120B08F7008B13831655309D00AA3000
:100E20009D009C149C18122F1C11770883128B04B0
:100E3000023083169B0083122C0883169A009C13A1
:100E40001C1583120B08F7008B13831655309D0079
:100E5000AA309D009C149C182B2F1C11770883121C
:100E60008B04033083169B0083122D0883169A008F
:100E70009C131C1583120B08F7008B138316553037
:100E80009D00AA309D009C149C18442F1C117708CB
:100E900083128B04B30133080C2000380319542F3C
:100EA000B30ABC00E3214B2F0130BD00BE00D121AD
:100EB000B3013308DC2000380319622FB30ABC00E9
:100EC000E321592F0430B300FA30BD00FF20B30BEB
:100ED000642F122B8B2FB30133080C200038031919
:100EE000752FB30ABC00E3216C2F0230BD00013026
:100EF000BE00D121B3013308EF2000380319842F3D
:100F0000B30ABC00E3217B2F0430B300FA30BD00EC
:100F1000FF20B30B862F122B122B63000A148A14A6
:100F20000A158207B62CB82CBA2CBC2C0A148A14C9
:0C0F30000A1582074A2C722C872C9C2C7E
:02400E00183F59
:00000001FF
;PIC16F628A
;CRC=7C0C  CREATED="18-nov.-14 01:20"
