:1000000008308A00002800000A108A100A118207AE
:1000100028340C34013406340A108A100A1182077D
:100020000C3400340A108A100A11820749346E34E5
:100030006734723465347334653420346C3461341D
:1000400000340A108A100A11820743346C34613478
:100050007634653400340A108A100A11820743345A
:100060006C346134763465343A3400340A108A10C2
:100070000A1182072A3400340A108A100A118207F2
:1000800043346C34613476346534203469346E34EE
:1000900063346F347234723465346334743461346D
:1000A00000340A108A100A11820742346C346F340B
:1000B000713475346534613464346F3400340A103B
:1000C0008A100A11820765347334703465347234CF
:1000D0006134203435346D3469346E3400340A10A0
:1000E0008A100A11820753346534673475346E34CC
:1000F00064346F3473343D3425344C3475340034F7
:100100000A108A100A11820743346C346134763441
:100110006534203463346F3472347234653463343C
:100120007434613400340A108A100A1182074D3485
:1001300061347434723469347A3420343834783425
:10014000383400340A108A100A11820743346C34A0
:10015000613476346534203461346E3474346534FB
:10016000723469346F3472343A3400340A108A10AD
:100170000A1182074E347534653476346134203484
:1001800063346C346134763465343A3400340A10A4
:100190008A100A1182075234653470346934743419
:1001A000613420346C346134203463346C34613411
:1001B000763465343A3400340A108A100A11820702
:1001C00043346C34613476346534203463346134C0
:1001D0006D346234693461346434613400340A103B
:1001E0008A100A1182074E344F342034433441348C
:1001F0004D344234493441344434413400343D3088
:10020000840083130008031913290130F800F70153
:10021000F70B0829F80B07294A30F700F70B0E29CE
:100220001129800B052908004418182906121929DC
:100230000616831606128312C41820298612212955
:100240008616831686128312441928290613292933
:100250000617831606138312C41930298613312911
:100260008617831686130000831205148316051063
:100270003929831205108316051083120800C50161
:100280008316061600308312061A0130C504831641
:10029000861600308312861A0130F7000310F70D1E
:1002A0007708C5048316061700308312061B013039
:1002B000F700F70DF70DFC30F7057708C504831636
:1002C000861700308312861B0130F700F70DF70DFB
:1002D000F70DF830F7057708C5044508F800080061
:1002E000831605108510051183128510831685105D
:1002F000061686160617861783120515831605112E
:1003000000008312051483160510000083123F219C
:100310007808C40005108316051000008312051428
:1003200083160510000083123F217808C3000510D2
:100330008316051006128612061386138312440EC6
:10034000F700F030F70577084304F8007808C30099
:10035000C31FAC2983167829C108031DB129851054
:10036000B2298514831685100000831205118316A7
:100370000511000083120510831605108312420E2A
:10038000C3000F30C3054308C400142142080F39CD
:10039000C300C40014210800831606128612061337
:1003A000861305108510051183128510831685109C
:1003B000831205118316051183120510831605108B
:1003C0000F308312BD00FF200130B3003308033C1F
:1003D000031CF2290330C40014210530BD00FF20A6
:1003E000B30AE6290230C40014210530BD00FF2005
:1003F000B3013308033C031C062A33080420B4006D
:10040000C1013408C2007021B30AF9298A150F28E6
:100410001030B700F701FA01B40CB30C031C162A14
:100420003508F7070318FA0A3608FA07FA0CF70C2A
:10043000F90CF80CB70B0C2A0800F701F801350885
:1004400003103618F707F70CF80CB618F707F70C77
:10045000F80C3619F707F70CF80CB619F707F70C74
:10046000F80C361AF707F70CF80CB61AF707F70C62
:10047000F80C361BF707F70CF80CB61BF707F70C50
:10048000F80C08003E0B452A482A4030BF00492A94
:10049000BF0101303D02BF073F088038C000C101E5
:1004A0004008C200702108003C08073A0319622A7C
:1004B0000B3A0319672A063A03196F2A023A0319FD
:1004C000752A7A2A0130BD00BE004222802AC1016D
:1004D0000130C20070210230BD00FF20802A0130AF
:1004E000BD000230BE004222802AC1011030C2008D
:1004F0007021802A0130C1003C08C2007021802A8E
:10050000080010308600831606168312061E8B2AFA
:100510000130F8000B2B831686168312861E932A51
:100520000230F8000B2B831606178312061F9B2A36
:100530000330F8000B2B831686178312861FA32A1D
:100540000A30F8000B2B2030850083160616831224
:10055000061EAD2A0430F8000B2B83168616831274
:10056000861EB52A0530F8000B2B8316061783125A
:10057000061FBD2A0630F8000B2B83168617831240
:10058000861FC52A0B30F8000B2B403085008316E0
:1005900006168312061ECF2A0730F8000B2B83168F
:1005A00086168312861ED72A0830F8000B2B831676
:1005B00006178312061FDF2A0930F8000B2B83165B
:1005C00086178312861FE72A0C30F8000B2B803029
:1005D0008500831606168312061EF12A2A30F800BB
:1005E0000B2B831686168312861EF92A0030F8001C
:1005F0000B2B831606178312061F012B2330F800DE
:100600000B2B831686178312861F092B0D30F800DB
:100610000B2B1430F8000800BB010408BA003B1093
:10062000831B3B14340EF038B600B607E23EB70029
:10063000323EB90034080F39B707B707B907E93EAA
:10064000B800B807B807330E0F39B807B907B80DA7
:10065000B90DB909B90D33080F39B907B60D07300F
:10066000B5000A30B907B803031C322BB807B7032B
:10067000031C362BB707B603031C3A2BB607B5038A
:10068000031C3E2B35308400831307303A053A13A0
:1006900084073930040203193A170008F700031DD4
:1006A000592B3A1B592B3A1A6B2BBA19592B20305C
:1006B0005C2BBA153A123030F707B4010408B300C6
:1006C0003410831B34147708BC0054223308840090
:1006D000831334188317840A3A1F492B8A15EA2A90
:10100000840183131F30830583168E1501308312EC
:10101000A600A701A90107309F008A11CC298A15D3
:10102000831685010F3086008312860183169B018B
:101030009C131C141A088312AE00013083169B0007
:101040009C131C141A088312AF00023083169B00F5
:101050009C131C141A088312B000033083169B00E3
:101060009C131C141A088312B100043083169B00D1
:101070009C131C141A08F8008312321078183214CA
:101080002F082E0730073107343C0318E228831657
:101090009B010A309A009C131C1583120B08F70061
:1010A0008B13831655309D00AA309D009C149C180C
:1010B00057281C11770883128B04013083169B007C
:1010C0000B309A009C131C1583120B08F7008B132E
:1010D000831655309D00AA309D009C149C186E28E4
:1010E0001C11770883128B04023083169B000C308E
:1010F0009A009C131C1583120B08F7008B138316A0
:1011000055309D00AA309D009C149C1885281C1108
:10111000770883128B04033083169B000D309A00EE
:101120009C131C1583120B08F7008B138316553084
:101130009D00AA309D009C149C189C281C117708C7
:1011400083128B04043083169B009A019C131C1598
:1011500083120B08F7008B13831655309D00AA30BD
:101160009D009C149C18B2281C11770883128B04D4
:1011700083169B019C131C141A088312AE000130C5
:1011800083169B009C131C141A088312AF000230B4
:1011900083169B009C131C141A088312B0000330A2
:1011A00083169B009C131C141A088312B100043090
:1011B00083169B009C131C141A08F800831232102B
:1011C00078183214B4012E08B3000330B600E830AA
:1011D000B5008A1108228A157908B4007808B3008E
:1011E0002F08B5006430B6008A111D228A157808D0
:1011F000B3070318B40A3008B5000A30B6008A11E4
:101200001D228A157808B3070318B40A310833077A
:10121000A0003408A1000318A10A3218F22AB30171
:1012200033088A110C208A15003803191D29B30AC6
:10123000BC008A1154228A1510290330BD000130E8
:10124000BE008A1142228A15B30133088A11122086
:101250008A15003803193229B30ABC008A115422B6
:101260008A1525290530BD000230BE008A114222B0
:101270008A15B30133088A1121208A150038031911
:101280004729B30ABC008A1154228A153A29C8306A
:10129000BD008A11FF208A15AA01AB01AC01AD0186
:1012A000A901A7018A1181228A157808A8002808B7
:1012B000143C0319052AFA30BD008A11FF208A1553
:1012C0002808233C0319522928082A3C0319662BB5
:1012D0002908FC3E0318052A043E862D0130A9008A
:1012E0002808AA00B30133088A110C208A15003897
:1012F00003198029B30ABC008A1154228A15732964
:101300000530BD000130BE008A1142228A15B301AA
:1013100033088A112B208A15B30AF700BC008A1102
:1013200054228A1506303302031D88290630BD0079
:101330000230BE008A1142228A152A30BC008A116E
:1013400054228A155229052A0230A9002808AB0028
:101350000730BD000230BE008A1142228A15B30157
:1013600033088A1136208A1500380319BD29B30ABB
:10137000BC008A1154228A15B0295229052A03304B
:10138000A9002808AC000830BD000230BE008A1158
:1013900042228A15B30133088A1136208A15003893
:1013A0000319D829B30ABC008A1154228A15CB2903
:1013B0005229052A2808AD000930BD000230BE00C0
:1013C0008A1142228A15B30133088A1136208A1500
:1013D00000380319F129B30ABC008A1154228A1576
:1013E000E4296430BD008A11FF208A152708FC3EDD
:1013F0000318042A043E7E2D062A042A992B042A67
:101400002D2C042A8C2C042A052A5229B4012A08DE
:10141000B3000330B600E830B5008A1108228A15FF
:101420007908B4007808B3002B08B5006430B60022
:101430008A111D228A157808B3070318B40A2C08EC
:10144000B5000A30B6008A111D228A157808B30744
:101450000318B40A2D083307A2003408A3000318A8
:10146000A30A22082002031D3B2A23082102031D90
:101470003B2AF22AF12AA60AB30133088A110C206A
:101480008A15003803194A2AB30ABC008A1154226B
:101490008A153D2A0130BD00BE008A1142228A15FC
:1014A000B30133088A113C208A15B30AF700BC0047
:1014B0008A1154228A1510303302031D512A043038
:1014C000B300FA30BD008A11FF208A15B30B612AE0
:1014D0002608043C0318F12AB30133088A110C20B2
:1014E0008A15003803197A2AB30ABC008A115422DB
:1014F0008A156D2A0330BD000130BE008A114222D8
:101500008A15B30133088A1151208A15003803194E
:101510008F2AB30ABC008A1154228A15822A02300B
:10152000BD00BE008A1142228A15B30133088A1118
:101530005F208A1500380319A32AB30ABC008A1158
:1015400054228A15962A0930B3006F30BD008A11E3
:10155000FF208A15B30BA52A0130A5002D30A40069
:10156000A408031DB62AA5080319F02A0930B30000
:101570006F30BD008A11FF208A15B30BB82AB30162
:1015800033088A110C208A1500380319CD2AB30AB2
:10159000BC008A1154228A15C02A0130BD00BE0049
:1015A0008A1142228A15B30133088A116F208A15E5
:1015B000B30AF700BC008A1154228A15093033029D
:1015C000031DD42A103084002508B4002408B30079
:1015D0008A110C2B8A1524080319A503A403B02A29
:1015E000A6011628043083169B0001309A009C1334
:1015F0001C1583120B08F7008B13831655309D00C2
:10160000AA309D009C149C18032B1C117708831290
:101610008B04B30133088A110C208A150038031992
:10162000172BB30ABC008A1154228A150A2B0130E9
:10163000BD00BE008A1142228A15B30133088A1107
:1016400080208A15B30AF700BC008A1154228A153B
:101650000E303302031D1E2B0330BD000230BE00CE
:101660008A1142228A15B30133088A1193208A1500
:10167000B30AF700BC008A1154228A150A303302DB
:10168000031D342B10308500A6018A1181228A1592
:101690007808A8002808143C0318452B850104305D
:1016A00083169B009A019C131C1583120B08F700EC
:1016B0008B13831655309D00AA309D009C149C18F6
:1016C0005F2B1C11770883128B041628A9010130A7
:1016D000A700AA01AB01AC01AD01B30133088A1127
:1016E0000C208A15003803197B2BB30ABC008A1121
:1016F00054228A156E2B0130BD00BE008A11422291
:101700008A15B30133088A11A2208A1500380319FB
:101710008F2BB30ABC008A1154228A15822B043005
:10172000B300FA30BD008A11FF208A15B30B912B4C
:101730005229B4012A08B3000330B600E830B500DE
:101740008A1108228A157908B4007808B3002B089A
:10175000B5006430B6008A111D228A157808B307D7
:101760000318B40A2C08B5000A30B6008A111D22ED
:101770008A157808B3070318B40A2D083307A200A6
:101780003408A3000318A30A22082002031D002C1A
:1017900023082102031D002CA9010230A700AA0181
:1017A000AB01AC01AD01B30133088A110C208A15DD
:1017B00000380319E12BB30ABC008A1154228A15A0
:1017C000D42B0230BD000130BE008A1142228A159E
:1017D000B30133088A11B6208A1500380319F62B95
:1017E000B30ABC008A1154228A15E92B0430B300D5
:1017F000FA30BD008A11FF208A15B30BF82B52294D
:10180000B30133088A110C208A15003803190E2CF5
:10181000B30ABC008A1154228A15012C0130BD0084
:10182000BE008A1142228A15B30133088A113C2076
:101830008A15B30AF700BC008A1154228A151030A9
:101840003302031D152C0430B300FA30BD008A1199
:10185000FF208A15B30B252C1628B4012A08B300E3
:101860000330B600E830B5008A1108228A157908DD
:10187000B4007808B3002B08B5006430B6008A11B4
:101880001D228A157808B3070318B40A2C08B5007E
:101890000A30B6008A111D228A157808B30703188A
:1018A000B40A2D083307A2003408A3000318A30AC2
:1018B000A9010330A700B30133088A110C208A154F
:1018C00000380319692CB30ABC008A1154228A1506
:1018D0005C2C0130BD00BE008A1142228A15B30182
:1018E00033088A11C7208A15B30AF700BC008A1191
:1018F00054228A1510303302031D702C0430B300BB
:10190000FA30BD008A11FF208A15B30B802CAA0182
:10191000AB01AC01AD015229B4012A08B300033078
:10192000B600E830B5008A1108228A157908B4009B
:101930007808B3002B08B5006430B6008A111D2268
:101940008A157808B3070318B40A2C08B5000A30C2
:10195000B6008A111D228A157808B3070318B40A45
:101960002D083307A4003408A5000318A50A24088D
:101970002202031D4F2D25082302031D4F2D831620
:101980009B0183122A0883169A009C131C1583124C
:101990000B08F7008B13831655309D00AA309D006D
:1019A0009C149C18D12C1C11770883128B040130D5
:1019B00083169B0083122B0883169A009C131C1518
:1019C00083120B08F7008B13831655309D00AA3045
:1019D0009D009C149C18EA2C1C11770883128B0420
:1019E000023083169B0083122C0883169A009C13E6
:1019F0001C1583120B08F7008B13831655309D00BE
:101A0000AA309D009C149C18032D1C11770883128A
:101A10008B04033083169B0083122D0883169A00D3
:101A20009C131C1583120B08F7008B13831655307B
:101A30009D00AA309D009C149C181C2D1C11770839
:101A400083128B04B30133088A110C208A150038E5
:101A50000319302DB30ABC008A1154228A15232D94
:101A60000130BD00BE008A1142228A15B30133083D
:101A70008A11DC208A1500380319442DB30ABC00F2
:101A80008A1154228A15372D0430B300FA30BD0074
:101A90008A11FF208A15B30B462D16287B2DB30122
:101AA00033088A110C208A15003803195D2DB30AFA
:101AB000BC008A1154228A15502D0230BD0001301D
:101AC000BE008A1142228A15B30133088A11EF2021
:101AD0008A1500380319722DB30ABC008A115422EA
:101AE0008A15652D0430B300FA30BD008A11FF203D
:101AF0008A15B30B742D1628162863000A148A1051
:101B00000A158207FC29FE29002A022A0A148A10D3
:0C1B10000A1582076E29A429BF29DA29D2
:02400E00183F59
:00000001FF
;PIC16F648A
;CRC=E1A0  CREATED="12-nov.-14 20:32"
