:1000000001308A00612900000A108A100A11820753
:1000100028340C34013406340A108A100A1182077D
:100020000C3400340A108A100A11820750346134EB
:100030007334733477346F34723464343A34003444
:100040000A108A100A11820745344534503452345C
:100050004F344D3420342534753400340A108A105E
:100060000A1182074E3475346D34653472346F343E
:100070003A34253475340034283084008313000862
:10008000031950280130F800F701F70B4528F80B49
:1000900044284A30F700F70B4B284E28800B4228A3
:1000A00008002F0EF039F7000F30060577048600A0
:1000B000000006145B28061008000608F700060E6C
:1000C0000F39F800080083160610861006118312F7
:1000D00086100F3083160605F03886008312061549
:1000E0000000061400005D207808AF000610000034
:1000F000061400005D207808AE0006100F3083164D
:100100000605860083122F0EF700F030F7057708FA
:100110002E04F8007808AE00AE1B69282C1C86104F
:100120002C18861400000611000006102D0EAE00DB
:100130000F30AE052E08AF0051202D080F39AE004C
:10014000AF00512008000F30831606058600061008
:100150008610061183128610061106100F30A800B3
:100160003C200130A5002508033C031CC1280330B6
:10017000AF005120AF0151200530A8003C20A50A56
:10018000B3280230AF005120AF0151200530A80044
:100190003C20A5012508033C031CD7282508042082
:1001A000A600AC012608AD006320A50ACA286D2967
:1001B000290BDB28DE284030AA00DF28AA01013005
:1001C0002802AA072A088038AB00AC012B08AD0032
:1001D000632008002708073A0319F8280B3A031987
:1001E000FD28063A03190529023A03190B2910299B
:1001F0000130A800A900D8201629AC010130AD00BB
:1002000063200230A8003C2016290130A8000230EB
:10021000A900D8201629AC011030AD0063201629A2
:100220000130AC002708AD0063201629080028081B
:10023000F801270203181F292708F7002B29F701C7
:100240000830A900A70DF70D280877020318F7005A
:10025000F80DA90B2229080078082508A7006430AA
:10026000A80017217708A50078083030031D3F2922
:10027000A61C4629A6194629261A20304229A6116D
:1002800026122614F8077808A700EA202508A700F8
:100290000A30A80017217708A50078083030031D20
:1002A0005729A6195B29261C5B29261A2030F80736
:1002B0007808A700EA203030A5072508A700EA2023
:1002C0000800840183131F30830583168E151430B4
:1002D0008312A00007309F00A32883169B0196304D
:1002E0009A009C131C1583120B08F7008B138316BE
:1002F00055309D00AA309D009C149C187D291C112E
:10030000770883128B04013083169B009A009C139C
:100310001C1583120B08F7008B13831655309D00B4
:10032000AA309D009C149C1893291C1177088312F5
:100330008B04023083169B0009309A009C131C1515
:1003400083120B08F7008B13831655309D00AA30DB
:100350009D009C149C18AA291C11770883128B04F9
:10036000033083169B0002309A009C131C158312E5
:100370000B08F7008B13831655309D00AA309D00A3
:100380009C149C18C1291C11770883128B04F0302F
:1003900083168500860183128601323083169B0006
:1003A0009C131C141A088312A100013083169B00B1
:1003B0009C131C141A088312A200023083169B009F
:1003C0009C131C141A088312A300033083169B008D
:1003D0009C131C141A088312A400A50125080C20E4
:1003E00000380319F729A50AA700EA20EE290230F0
:1003F000A8000130A900D820A50125081220A50ACF
:10040000F700A700EA2009302502031DFD2901306D
:10041000A8000230A900D820A50125082020A50A9F
:10042000F700A700EA2007302502031D0D2A210846
:10043000A5001B30A6002C210430A500FA30A8002E
:100440003C20A50B1E2A1430A00001308500831625
:1004500005168312051E2E2A0130A000831685166C
:100460008312851E352A0230A000831605178312D9
:10047000051F3C2A0330A000831685178312851FB1
:10048000432A0A30A0000230850083160516831225
:10049000051E4C2A0430A000831685168312851E83
:1004A000532A0530A000831605178312051F5A2A08
:1004B0000630A000831685178312851F612A0B3032
:1004C000A00004308500831605168312051E6A2AD3
:1004D0000730A000831685168312851E712A083006
:1004E000A000831605178312051F782A0930A00083
:1004F000831685178312851F7F2A0C30A0000830D1
:100500008500831605168312051E882A0E30A0006A
:10051000831685168312851AA00183160517831288
:10052000051F942A0F30A000831685178312851F9C
:100530009B2A0D30A00020080F3C031CCA2AFA3069
:10054000A8003C2020080A3C0318A82A083086008E
:1005500020080A3C03188601A50125080C20003854
:100560000319B62AA50AA700EA20AD2A0130A8007F
:10057000A900D820A50125082E20A50AF700A7006C
:10058000EA2007302502031DBB2A2008A5001B30E6
:08059000A6002C21232A6300C0
:02400E00183F59
:00000001FF
;PIC16F628A
;CRC=FF49  CREATED="23-nov.-14 21:02"
