:1000000002308A00222A00000A108A100A11820790
:1000100028340C34013406340A108A100A1182077D
:100020000C34203420342034203442346934653494
:100030006E34763465346E34693464346F347334BA
:100040000A340A3420342034203443346F346E347C
:10005000743472346F346C34203464346534203436
:1000600075346E340A3420344D346F3474346F3444
:10007000723420347034613473346F34203461341A
:1000800020347034613473346F3400340A108A10B1
:100090000A1182070C345434653463346C3461348F
:1000A0003D342034253463340A345434693465349F
:1000B0006D3470346F343D34203425344C34753411
:1000C00020347534733400342E30840083130008D8
:1000D000031978280130F800F701F70B6D28F80BA9
:1000E0006C284A30F700F70B73287628800B6A28B3
:1000F0000800340EF039F7000F300605770486004B
:10010000000006148328061008008610F0306600F0
:1001100006150000061400000608060E0F39B4008C
:1001200006100000061400000608060E0F39B30082
:10013000061000306600340EF700F030F70577083F
:100140003304F8007808B300B31B8628311C8610EE
:10015000311886140000061100000610320EB3009C
:100160000F30B3053308B400792032080F39B300DB
:10017000B4007920080000306600861006110610D1
:100180000F30AE0064200130A4002408033C031C9F
:10019000D1280330B40079200530AE006420A40AD1
:1001A000C5280230B4007920A4012408033C031CB4
:1001B000E22824080420A500B1012508B20085200A
:1001C000A40AD5288A11312A01302F02FC3E0318D7
:1001D000F728043E00298030B000F728C030B00076
:1001E000F7289430B000F728D430B000F728013059
:1001F0002E02B007B1013008B20085208A112F29E4
:100200000A148A100A118207EB28EE28F128F42834
:100210002D080C3A03191329063A03191D29023A2D
:10022000031924292929B1010130B20085200130A8
:10023000A0000230AE0064202F29A00A0130AE00D9
:100240002008AF00E4282F29B1011030B20085202A
:100250002F290130B1002D08B20085202F29080078
:10026000E03066001C308600831686168312861ADC
:100270003C293130F800BC29831606178312061B6F
:1002800044293230F800BC29831686178312861B56
:100290004C293330F800BC29831605168312051A41
:1002A00054294130F800BC291A308600831686167E
:1002B0008312861A5E293430F800BC29831606178B
:1002C0008312061B66293530F800BC298316861771
:1002D0008312861B6E293630F800BC29831605165A
:1002E0008312051A76294230F800BC2916308600A0
:1002F000831686168312861A80293730F800BC29A7
:10030000831606178312061B88293830F800BC298B
:10031000831686178312861B90293930F800BC2972
:10032000831605168312051A98294330F800BC2954
:100330000E308600831686168312861AA2292A306A
:10034000F800BC29831606178312061BAA29303031
:10035000F800BC29831686178312861BB229233026
:10036000F800BC29831605168312051ABA294430F1
:10037000F800BC290030F8008A11452AAC010408B5
:10038000AB002C10831B2C14250EF038A700A707F8
:10039000E23EA800323EAA0025080F39A807A807A8
:1003A000AA07E93EA900A907A907240E0F39A90742
:1003B000AA07A90DAA0DAA09AA0D24080F39AA0790
:1003C000A70D0730A6000A30AA07A903031CE429D9
:1003D000A907A803031CE829A807A703031CEC2905
:1003E000A707A603031CF0292630840083130730D7
:1003F0002B052B1384072A30040203192B1700083E
:10040000F700031D0B2A2B1B0B2A2B1A1D2AAB19D5
:100410000B2A20300E2AAB152B123030F707A5011E
:100420000408A4002510831B25147708AD000821BB
:1004300024088400831325188317840A2B1FFB29A3
:100440008A117A2A840183131F30830507309F00A5
:1004500083168113B03085008312850185309000AA
:10046000BB28A40124080C20003803193B2AA40A45
:10047000AD000821322A0830A400FA30AE00642012
:10048000A40B3D2A8F018E0130297808A1000F08A6
:10049000FA000E08F7000F087A02031D472A7708B2
:1004A000A2007A08A300A1080319832A9630AE009F
:1004B0006420A40124084620A40AF700AD00082106
:1004C00008302402031D5A2A2108AD0008210A30F1
:1004D000A40024084620A40AF700AD000821133028
:1004E0002402031D692A103084002308A500220875
:1004F000A400BE292030AD0008217530AD000821D0
:0A0500007330AD000821422A6300A9
:02400E002A3F47
:00000001FF
;PIC16F648A
;CRC=ECBE  CREATED="08-jun.-15 19:20"
