:1000000001308A0040290000FF00030E8301A50093
:100010007F08A4000A08AB008A01A40E0408A60009
:100020002008A7002108A8002208A9002308AA0088
:10003000831383120B1E1E288B1866282608840043
:100040002708A0002808A1002908A2002A08A30068
:100050002B088A00250E8300FF0E7F0E09000A1070
:100060008A100A1182070034003484348234FF3449
:1000700080348034003400340434E23491348934E0
:10008000863400340034003404348234913499349A
:10009000663400340034003410341834143412340C
:1000A000FF34103400343D30840000080319652803
:1000B0000630A100A001A00B5B28A10B5A287B30C1
:1000C000A000A00B6128800B582808000230BC005B
:1000D0009630BD005320BC0B6828370803197A28D6
:1000E0000A3A03197E286F3A031982286E3A0319D7
:1000F000862889280A30B700381089286530B7006B
:10010000381089280B30B70038108928B70138100B
:1001100089288B108A111E2837080A3C031D932852
:10012000B9010730BA003708653C031D9B28093028
:10013000B9001030BA0037080B3C031DA32811305A
:10014000B9001830BA00B708031DAA281930B90041
:100150002030BA00AD012D08633C031CCC28861763
:100160000617861306133908AE003A082E02031844
:10017000CA282E082F20A1008700AC018B1BAC17CA
:100180008B130230BD005320AC1B8B1706170613D0
:10019000AE0AB528AD0AAB28381408000330BA02FD
:1001A000031CDB283A30840000080319DB28D92817
:1001B000D928800BD82808003B080A3C031CE328F8
:1001C0000030A1001B293B081F3C031CEA2880309B
:1001D000A1001B293B083F3C031CF128C030A100B3
:1001E0001B293B085F3C031CF828E030A1001B29B9
:1001F0003B087F3C031CFF28F030A1001B293B0873
:10020000A03C031C0629F830A1001B293B08BF3C79
:10021000031C0D29FC30A1001B293B08DF3C031CFB
:100220001429FE30A1001B293B08DF3C03181B29C1
:10023000FF30A1001B2908003A08323C031C232987
:100240000030A1003F293A08403C031C2A291830FD
:10025000A1003F293A08803C031C31293C30A10011
:100260003F293A08BF3C031C38297E30A1003F29B2
:100270003A08BF3C03183F29FF30A1003F29772AE5
:1002800084011F308305381003171F109F101F11A2
:100290009F1103131F13003003179E0099019A0149
:1002A00083169E0183129B0103138D12831687010F
:1002B0008312870130308316860083128601FF3057
:1002C00083168500831203171F109F101F159F159B
:1002D00003131F17013003179E00831603131F1209
:1002E0009F121F1383129F131F140B1683160113E3
:1002F000C03083128B04AE012E08083C031C8829F1
:10030000061706132F302E0784008001AE0A7C29C1
:100310000A30B700B7080319912937080B3C031DB1
:10032000E929381894298C20AD012D08053C031CBF
:10033000BD298617061786130613AE012E08073C43
:10034000031CBB292F302E07840000088700AC0156
:100350008B1BAC178B130230BD005320AC1B8B17CB
:100360000230B9009530BA00CE20B90BB229061779
:100370000613AE0A9E29AD0A9529370DA000A00DDF
:10038000FC30A0051F08C33920049F001830A000CE
:10039000A00BC829CB29AE012E08073C031CDF297E
:1003A0002F302E07B90001302E072F3E84000008A1
:1003B000BA00390884003A088000AE0ACC299F149C
:1003C0009F18E0291E08B900BB00DC202108B600F8
:1003D0008A2937080A3C031D252A3818F0298C2061
:1003E0002830A1001F08C33921049F001830A00045
:1003F000A00BF829FB298617061786130613AE01F2
:100400002E08073C031C242A2F302E0784000008E6
:100410008700AC018B1BAC178B130230BD0053203F
:10042000AC1B8B172F302E07B9009F149F18162A6C
:100430001E08BA00BB00DC203908840021088000B7
:1004400006170613AE0A002AE9293708653C031D82
:100450007A2A38182C2A8C20AD012D08013C031C67
:10046000512A8617061786130613AE012E08073C7D
:10047000031C4F2A2F302E07840000088700AC0190
:100480008B1BAC178B130230BD005320AC1B8B179A
:10049000C830BA00CE2006170613AE0A362AAD0AB7
:1004A0002D2A2830A1001F08C33921049F001830CD
:1004B000A000A00B592A5C2AAE012E08073C031CA1
:1004C000702A2F302E07B90001302E072F3E8400EE
:1004D0000008BA00390884003A088000AE0A5D2A94
:1004E0009F149F18712A1E08B900BA001C29210800
:0804F000B600252A8A296300E9
:02400E00F23C82
:00000001FF
;PIC16F677
;CRC=0466  CREATED="25-sep.-15 20:56"
