:040000007EEF00F09F
:08000800046ED8CF05F0E0CF33
:1000100006F00001E9CF0CF0EACF07F0E1CF08F0DD
:10002000E2CF09F0D9CF0AF0DACF0BF0F3CF12F01C
:10003000F4CF13F0FACF14F000C00EF001C00FF0AF
:1000400002C010F003C011F0F2AA2AEF00F0F2B4DF
:100050004BEF00F00EC000F00FC001F010C002F036
:1000600011C003F00CC0E9FF07C0EAFF078E08C00B
:10007000E1FF09C0E2FF0AC0D9FF0BC0DAFF12C0DE
:10008000F3FF13C0F4FF14C0FAFF045006C0E0FFF2
:1000900005C0D8FF1000162A16520AE1185201E0D6
:1000A0008C80195201E08C821A5201E08C84162A4D
:1000B0001850165C01E18C901950165C01E18C928D
:1000C0001A50165C01E18C94D76AC80ED66EF29471
:1000D0002AEF00F0EA6A1C0EE96EEF500DE0060E02
:1000E000016E006A002EFED7012EFBD77B0E006E3C
:1000F000002EFED7EF2EF3D7C5EF00F0F86AD09EA2
:10010000078E166A176A186A196A1A6AC150C00BF4
:100110000F09C16E070EB46E720ED36ED350F19EEE
:10012000FF0E926EF00E956EFF0E936EC050C00BD8
:100130002209C06EC09EC280C150C00B0E09C16EA4
:10014000000E016EC250C30B0110C26EC80ED56EF8
:10015000F28AC00EF212C282C2B2FED7C4CF1BF026
:10016000175005E0010A06E0030A07E008D01BC0AB
:1001700018F005D01BC019F002D01BC01AF09380F4
:1001800081B00ED0010E1C6EA5D7938081A0FDD743
:100190001750010802E2000E02D0010E1724176E5C
:1001A000520E006E002EFED700D00000D4D7030000
:020000040030CA
:0E00000004CC380E0087A1000FC00FE00F40A7
:00000001FF
;PIC18F4550
;CRC=F728  CREATED="20-ago.-18 18:03"
