:1000000003308A00A22B0000FF00030E8301A10031
:100010007F08A0000A08A7008A01A00E0408A20019
:100020007708A3007808A4007908A5007A08A6003C
:10003000831383128C308400801E20288C1A35286C
:100040008B1E24280B193728220884002308F70068
:100050002408F8002508F9002608FA0027088A0075
:10006000210E8300FF0E7F0E09008A1139288A11A4
:1000700056288C1E39281A08A9002908563C031D49
:1000800049282815FF3095001708CF3930389700D8
:1000900053282908763C031D522828115330A90003
:1000A0002814532828148C128A1124282A08263C44
:1000B0000318612883160613403083128606AA01AE
:1000C0006228AA0A0B118A1124283C080739F70074
:1000D0003C0CF800F80CF80C1F30F80578083E07C7
:1000E000840083133F188317F801F80AF70A792868
:1000F000F80DF70B7828BD080319812878088004CB
:100100008428F8097808800508000330BD02031C24
:1001100093283D3084008313000803199328912805
:100120009128800B902808003708203CB9004E30F9
:10013000BA003808031C380FBA02BB0136083B026C
:100140000318D9283508BC000130BD00BF01BE012D
:1001500065203508BC00BD01BF018030BE006520B0
:100160003808BC00BC0ABC030319BA28FF30BD0024
:100170008520B3283708BD0085203508BC00BD01A7
:10018000BF01BE0165203508BC00BD01BF01803044
:10019000BE0065203A08BC00BC0ABC030319D42881
:1001A000FF30BD008520CD283908BD008520BB0A61
:1001B0009E28080037080739F700370CF800F80CBC
:1001C000F80C1F30F80578083807840083133918B5
:1001D00083170008F800F70AEE28F80CF70BED2853
:1001E00008003508BC000130BD00BF01BE0165201C
:1001F0003508BC00BD01BF018030BE006520213044
:10020000F700F70B01293508BC00BD01BF01BE0195
:1002100065203508BC00BD01BF018030BE006520EF
:100220003608BC000130BD00BF018030BE00652033
:100230003608B700B901B801DA20781C10298F01FF
:100240008E013608BC000130BD00BF018030BE0009
:1002500065203608B700B901B801DA2078182129DD
:100260000F08FA000E08F7000F087A02031D302964
:100270007708B7007A08B8003808BA003708B9001C
:100280000130BC002230BB00F801F901F701FA018E
:100290003C08031D4E293B08031968291030BD0096
:1002A0000310B90DBA0DF70DFA0D3C087A02031DC3
:1002B0005B293B087702031C64293B08F702031CF7
:1002C000FA033C08FA020314F80DF90DBD0B50298E
:1002D0007908FA007908F9000800363084008313A1
:1002E0000008031980290630F800F701F70B76297A
:1002F000F80B75297B30F700F70B7C29800B7329ED
:1003000008002930B5002830B600F1207908B60081
:100310007808B500B608031D91293508193C031863
:100320009A29831605118312051583160612831266
:100330000612372A83160511831205113030B500D5
:100340002830B6000430B8003330B700942029308C
:10035000B5002830B600F1207908B0007808AF0069
:100360003030B5002830B6000630B800EF30B700A6
:1003700094202930B5002830B600F1207908B20069
:100380007808B10032083002031C022A031DCC2970
:100390002F0831020318022A3030B5002830B60089
:1003A0000630B800EF30B70094208316061283128F
:1003B00006160230B500FA30B6006D21B50BDB2908
:1003C00083160612831206123030B5002830B600AC
:1003D0000430B8003330B70094208316051183121F
:1003E00005150430B500AF30B6006D21B50BF3290B
:1003F0003030B5002830B6000530B8009130B70075
:100400009420372A3030B5002830B6000430B800C8
:100410003330B7009420831606128312061602307A
:10042000B500FA30B6006D21B50B112A83160612FD
:10043000831206123030B5002830B6000630B800FE
:10044000EF30B70094208316051183120515043090
:10045000B500AF30B6006D21B50B292A3030B5009C
:100460002830B6000530B8009130B70094208A11CA
:10047000F82B281CA02B281029082F3C0318442AED
:100480002908393C0318482A2908713C031D762A9B
:1004900030302902B300B4012908713C031D542AED
:1004A0000330FA00FF30722A3408B6003308B50072
:1004B000B8016630B7001030B900F701FA01B60C88
:1004C000B50C031C692A3708F7070318FA0A38081D
:1004D000FA07FA0CF70CF90CF80CB90B5F2A79083B
:1004E000FA007808AD007A08AE008D2B2908463A4C
:1004F0000319A82A043A0319AD2A0E3A0319B22A9D
:100500001E3A0319CD2A1B3A0319E52A033A0319A7
:10051000012B0D3A03191D2B0F3A03193C2B1B3AE3
:1005200003195B2B173A0319642B1C3A03196A2B26
:10053000203A03196E2B2F3A0319752B203A031911
:100540007A2B223A03197F2B203A0319862B8D2B05
:1005500083160511831205158D2B8316061283123F
:1005600006168D2B2C08033C0318CC2AFF3A031DDA
:10057000BD2A2B08333C0318CC2AAF30AB02003025
:10058000031C0130AC023030B5001930B6002C0825
:10059000B8002B08B70094208D2B2C08063C031CB8
:1005A000E42A031DD72A2B08EE3C031CE42AAF30B3
:1005B000AB070318AC0A3030B5001930B6002C0870
:1005C000B8002B08B70094208D2B831605118312D9
:1005D00005152C08063C031C002B031DF32A2B08D1
:1005E000EE3C031C002BAF30AB070318AC0A3030D5
:1005F000B5001930B6002C08B8002B08B7009420BD
:100600008D2B83160612831206162C08063C031C3B
:100610001C2B031D0F2B2B08EE3C031C1C2BAF3097
:10062000AB070318AC0A3030B5001930B6002C08FF
:10063000B8002B08B70094208D2B83160511831268
:1006400005152C08033C03183B2BFF3A031D2C2BEC
:100650002B08333C03183B2BAF30AB020030031C9C
:100660000130AC023030B5001930B6002C08B800AB
:100670002B08B70094208D2B8316061283120616C2
:100680002C08033C03185A2BFF3A031D4B2B2B0855
:10069000333C03185A2BAF30AB020030031C01303F
:1006A000AC023030B5001930B6002C08B8002B0869
:1006B000B70094208D2B8316051183120511831624
:1006C0000612831206128D2B803086008B128A014F
:1006D00000288D2B8101A8148B168D2B8B12A8104E
:1006E00083160613831206138D2B8316861283122C
:1006F00086168D2B83168612831286128D2BA818D0
:10070000852B83160613831206178D2BA8188C2BA6
:1007100083160613831206138D2B2E08F9002D085D
:10072000F800F90CF80CF90CF80CF90C78089500A5
:10073000F90C790C3039F7001708CF397704970096
:100740008A11F82B840183131F30830581308316AF
:100750009900A63098009030831298002810A810B5
:100760002811A901AA010530AC009130AB00AE01FF
:10077000AD0107309F00F13083168500831285019B
:100780000230831686008312860183168611831237
:1007900086110C30970083160108C0390738810094
:1007A0008530831290000030F80004389200FF304A
:1007B0008316920083129501831605168312051A7B
:1007C000DC2B3030B5001930B6002C08B8002B08EF
:1007D000B700942083168C16C03083128B048316C6
:1007E000861383128617281DF72B8129F82B392AA7
:0407F000F32B630084
:02400E002A3F47
:00000001FF
;PIC16F648A
;CRC=76B0  CREATED="07-abr.-16 19:01"
