:1000000000308A0019280000223084008313000881
:10001000031918280130F800F701F70B0D28F80B29
:100020000C284A30F700F70B13281628800B0A28F3
:100030000800840183131F30830583168E15073053
:1000400083129F0000306600CC3086003230A20060
:10005000042086013230A2000420CC3086003230E9
:10006000A200042086013230A2000420CC30860099
:100070003230A200042086013230A2000420CC30AD
:1000800086003230A200042086010230A100E13057
:10009000A2000420A10B4728333086003230A20092
:1000A000042086013230A200042033308600323032
:1000B000A200042086013230A200042033308600E2
:1000C0003230A200042086013230A20004203330F6
:1000D00086003230A200042086010230A100E13007
:0C00E000A2000420A10B6F28242863005C
:02400E00393F38
:00000001FF
;PIC16F628A
;CRC=D170  CREATED="28-oct.-14 14:43"
