:1000000000308A001928000025308400831300087E
:10001000031918280130F800F701F70B0D28F80B29
:100020000C284A30F700F70B13281628800B0A28F3
:100030000800840183131F30830583168E15073053
:1000400083129F00FF30A100221000306600FF30B5
:100050006500E830A300210886000830A400FA30CB
:10006000A5000420A40B2F28A1012108860004303C
:10007000A400FA30A5000420A40B392883168515A6
:100080008312851D4E286430A302C830A5000420C9
:100090002308633C031C4E28E830A300221C5A2886
:1000A000210886000130A1072308A5000420210FA4
:1000B0005A28A101831605148312051C67282214EF
:1000C0000230A4009630A5000420A40B62288316F9
:1000D00085148312851C742822100230A4009630E7
:1000E000A5000420A40B6F28831605158312051D97
:1000F0007F28A101C830A5000420210886003E28E1
:0201000063009A
:02400E00193F58
:00000001FF
;PIC16F628A
;CRC=1C7F  CREATED="29-oct.-14 23:32"
