:1000000000308A006B2800000A108A100A1182074B
:100010000034003400340034003400340034003440
:10002000003461349134913491348E3400347E3410
:1000300081348134813481347E3400347E3481349F
:1000400081348134FF34003481348134FF3481348D
:1000500081340034FF344034203410340834FF3409
:1000600000349134913491349134FF3400343F346E
:100070004034803440343F340034FF344034203442
:1000800010340834FF340034913491349134913475
:10009000FF34003481348134FF34813481340034BE
:1000A0007E34913491349134FF3400340034003480
:1000B00000340034003400340034273084008313CB
:1000C000000803196A28A530F700F70B652800001F
:1000D000800B6328A928840183131F308305A001A6
:1000E000A201A10107309F00831686011030650030
:1000F00083128601A0012008093C031C83280514F3
:100100000510A00A7B28A6014D30A500A40155309A
:10011000A300A0012008073C031CB1288514051486
:10012000851005102608A2002508A1002208240237
:10013000031CAF28031DA028230821020318AF28A1
:100140002208FA0021080420F80086000230A700E7
:100150005D2805140510A10A0319A20A9628A00A11
:100160008A2823080319A403A30325080319A60357
:10017000A503A308031DC528A408031DC528A401C1
:0E0180005530A300A6014D30A500892863006C
:02400E000A3F67
:00000001FF
;PIC16F628A
;CRC=AC85  CREATED="23-feb.-15 21:58"
