:1000000000308A00172800002730840000080319F8
:1000100016280230A100A001A00B0C28A10B0B2870
:100020009730A000A00B1228800B09284F288401CC
:100030001F308305713083168F000F08831203175A
:100040001F109F101F119F1103131F130030031760
:100050009E0099019A0183169E0183129B0103134E
:100060008D12713083168F000F088601870183126D
:100070008701860103171F109F101F119F11031383
:100080001F13013003179E00831603131F169F16BC
:100090001F1383129F131F143230A70004289F14CC
:1000A0009F18502883161E088312A5001E08A6005C
:1000B0002608123C031C6228031D612825086D3C9C
:1000C000031886012608023C031C6E28031D6C28B9
:1000D00025080B3C031C6E2887014C282608133C7E
:1000E00003187C28FF3A031D79282508793C03185A
:1000F0007C28C03086008A282608113C03188A28EC
:10010000FF3A031D872825086D3C03188A284030D4
:1001100086008A2826080F3C03189828FF3A031DFA
:1001200095282508613C03189828FF3087004C2843
:1001300026080D3C0318A628FF3A031DA32825080E
:10014000553C0318A6287F3087004C2826080B3C16
:100150000318B428FF3A031DB1282508483C0318AA
:10016000B4283F3087004C282608093C0318C228D1
:10017000FF3A031DBF2825083C3C0318C2281F3046
:1001800087004C282608073C0318D028FF3A031D97
:10019000CD282508303C0318D0280F3087004C2884
:1001A0002608053C0318DE28FF3A031DDB28250836
:1001B000283C0318DE28073087004C282608033C1B
:1001C0000318EC28FF3A031DE9282508173C0318FB
:1001D000EC28033087004C282608013C0318FA2835
:1001E000FF3A031DF72825080B3C0318FA280130B5
:0801F00087004C284C28630035
:02400E00D43CA0
:00000001FF
;PIC16F677
;CRC=2965  CREATED="09-nov.-14 23:44"
