:1000000003308A00B22B0000FF00030E8301A10021
:100010007F08A0000A08A7008A01A00E0408A20019
:100020007708A3007808A4007908A5007A08A6003C
:10003000831383128C308400801E20288C1A35286C
:100040008B1E24280B193728220884002308F70068
:100050002408F8002508F9002608FA0027088A0075
:10006000210E8300FF0E7F0E09008A1139288A11A4
:1000700041288C1E39281A08A90028148C128A11CC
:1000800024282A08263C03184C28831606134030DF
:1000900083128606AA014D28AA0A0B118A11242868
:1000A0003C080739F7003C0CF800F80CF80C1F303E
:1000B000F80578083E07840083133F188317F8017A
:1000C000F80AF70A6428F80DF70B6328BD0803192E
:1000D0006C28780880046F28F809780880050800E3
:1000E0000330BD02031C7E283D30840083130008CA
:1000F00003197E287C287C28800B7B280800370881
:10010000203CB9004E30BA003808031C380FBA0240
:10011000BB0136083B020318C4283508BC00013077
:10012000BD00BF01BE0150203508BC00BD01BF01AC
:100130008030BE0050203808BC00BC0ABC03031944
:10014000A528FF30BD0070209E283708BD00702014
:100150003508BC00BD01BF01BE0150203508BC0000
:10016000BD01BF018030BE0050203A08BC00BC0A6F
:10017000BC030319BF28FF30BD007020B828390820
:10018000BD007020BB0A8928080037080739F7002E
:10019000370CF800F80CF80C1F30F8057808380711
:1001A00084008313391883170008F800F70AD92848
:1001B000F80CF70BD82808003508BC000130BD004A
:1001C000BF01BE0150203508BC00BD01BF01803019
:1001D000BE0050202130F700F70BEC283508BC009A
:1001E000BD01BF01BE0150203508BC00BD01BF01EB
:1001F0008030BE0050203608BC000130BD00BF0179
:100200008030BE0050203608B700B901B801C520C3
:10021000781CFB288F018E013608BC000130BD0020
:10022000BF018030BE0050203608B700B901B801C8
:10023000C52078180C290F08FA000E08F7000F08DF
:100240007A02031D1B297708B7007A08B80038081E
:10025000BA003708B9000130BC002230BB00F801F9
:10026000F901F701FA013C08031D39293B0803197C
:1002700053291030BD000310B90DBA0DF70DFA0D5A
:100280003C087A02031D46293B087702031C4F29CC
:100290003B08F702031CFA033C08FA020314F80DAA
:1002A000F90DBD0B3B297908FA007908F90008001F
:1002B000363084008313000803196B290630F800D8
:1002C000F701F70B6129F80B60297B30F700F70B7A
:1002D0006729800B5E290800281D242A2930B500D3
:1002E0002830B600DC207908B6007808B500B608DA
:1002F000031D7E293508193C03188729831605112B
:10030000831205158316061283120612242A8316F9
:100310000511831205113030B5002830B6000430C5
:10032000B8003330B7007F202930B5002830B60040
:10033000DC207908B0007808AF003030B5002830F4
:10034000B6000630B800EF30B7007F202930B50086
:100350002830B600DC207908B2007808B1003208F5
:100360003002031CEF29031DB9292F08310203189D
:10037000EF293030B5002830B6000630B800EF3035
:10038000B7007F2083160612831206160230B500CE
:10039000FA30B6005821B50BC8298316061283120D
:1003A00006123030B5002830B6000430B8003330C3
:1003B000B7007F2083160511831205150430B500A0
:1003C000AF30B6005821B50BE0293030B5002830E9
:1003D000B6000530B8009130B7007F20242A3030B5
:1003E000B5002830B6000430B8003330B7007F20A5
:1003F00083160612831206160230B500FA30B600D4
:100400005821B50BFE2983160612831206123030CE
:10041000B5002830B6000630B800EF30B7007F20B6
:1004200083160511831205150430B500AF30B600F0
:100430005821B50B162A3030B5002830B6000530EB
:10044000B8009130B7007F20281C972B281028195E
:100450004A2B29082F3C0318312A2908393C031854
:10046000352A2908713C031D762A30302902B30051
:10047000B4012908713C031D412A0330FA00FF3002
:100480005F2A3408B6003308B500B8016630B700FB
:100490001030B900F701FA01B60CB50C031C562A4E
:1004A0003708F7070318FA0A3808FA07FA0CF70CA6
:1004B000F90CF80CB90B4C2A7908FA007808AD0051
:1004C0007A08AE002E08F9002D08F800F90CF80C97
:1004D000F90CF80CF90C78089500F90C790C303906
:1004E000F7001708CF39770497004A2B42302902CA
:1004F000EB3E03184A2B153E992B28153030B500DA
:100500001930B6000530B8009130B7007F20FF30B9
:1005100095001708CF39303897004A2B83160511FC
:10052000831205154A2B83160612831206164A2BD0
:100530002C08033C0318B22AFF3A031DA32A2B08F8
:10054000333C0318B22AAF30AB020030031C013039
:10055000AC023030B5001930B6002C08B8002B08BA
:10056000B7007F204A2B2C08063C031CCA2A031D17
:10057000BD2A2B08EE3C031CCA2AAF30AB07031878
:10058000AC0A3030B5001930B6002C08B8002B0882
:10059000B7007F204A2B83160511831205152C08FE
:1005A000063C031CE62A031DD92A2B08EE3C031C3B
:1005B000E62AAF30AB070318AC0A3030B50019306B
:1005C000B6002C08B8002B08B7007F204A2B8316F2
:1005D0000612831206162C08063C031C022B031D70
:1005E000F52A2B08EE3C031C022BAF30AB07031897
:1005F000AC0A3030B5001930B6002C08B8002B0812
:10060000B7007F204A2B83160511831205152C088D
:10061000033C0318212BFF3A031D122B2B08333CFC
:100620000318212BAF30AB020030031C0130AC02A9
:100630003030B5001930B6002C08B8002B08B700D0
:100640007F204A2B83160612831206162C08033CC1
:100650000318402BFF3A031D312B2B08333C0318A2
:10066000402BAF30AB020030031C0130AC02303005
:10067000B5001930B6002C08B8002B08B7007F2051
:100680004A2B831605118312051183160612831255
:1006900006124A2B2908763A0319642B323A0319B9
:1006A0006E2B1C3A0319742B203A0319782B2F3A1E
:1006B00003197F2B203A0319842B223A0319892B23
:1006C000203A0319902B972B2811831605118312BA
:1006D00005118316061283120612972B80308600AE
:1006E0008B128A010028972B8101A8148B16972B57
:1006F0008B12A8108316061383120613972B8316EA
:10070000861283128616972B831686128312861200
:10071000972BA8188F2B8316061383120617972B77
:10072000A818962B8316061383120613972B8A118B
:10073000042C0A148A140A118207932A4A2B4A2B82
:100740004A2B8E2A032B222BCB2AE72A4A2B982AC4
:100750004A2B4A2B4A2B4A2B4A2BB32A412B4A2B92
:100760004A2B7D2A840183131F3083058130831631
:100770009900A63098009030831298002810A81095
:100780002811A901AA010530AC009130AB00AE01DF
:10079000AD0107309F00F13083168500831285017B
:1007A0000230831686008312860183168611831217
:1007B00086110C30970083160108C0390738810074
:1007C0008530831290000030F80004389200FF302A
:1007D0008316920083129501831605168312051A5B
:1007E000EC2B3030B5001930B6002C08B8002B08BF
:1007F000B7007F2083168C16C03083128B048316BB
:0C0800008613831286176C29032C6300FA
:02400E002A3F47
:00000001FF
;PIC16F648A
;CRC=42B7  CREATED="19-jul.-16 15:55"
