:1000000000308A002B28000022308400831300086F
:10001000031917280630F800F701F70B0D28F80B25
:100020000C287B30F700F70B1328800B0A288A1165
:100030000A125A280330A302031C28282330840004
:10004000831300080319282826282628800B252832
:100050008A110A125F28840183131F3083058316D7
:1000600003170908C039890003131F129F120030BB
:1000700003178800831287018801890183160313FF
:100080008701831287018316860183128601FF3060
:100090008316850083120610061487010615861440
:1000A00006118610A1012108273C031C6628013097
:1000B000A20004280230A200F930A3001A28A20BE3
:1000C0005C2886148610870AA10A53284D286300ED
:04400E00F22CFF3F52
:00000001FF
;PIC16F886
;CRC=B69B  CREATED="26-dic.-15 23:32"
