:1000000000308A0093280000223084008313000807
:10001000031918280130F800F701F70B0D28F80B29
:100020000C284A30F700F70B13281628800B0A28F3
:10003000080027080739F700270CF800F80CF80C1F
:100040001F30F80578082907840083132A188317BE
:10005000F801F80AF70A2D28F80DF70B2C28A80844
:1000600003193528780880043828F80978088005AD
:1000700008001230A802031C4C2828308400831387
:10008000FC3080050310800C800C000803194C28FC
:100090004A280000800B492808002208203CA400C0
:1000A0004E30A5002308031C230FA502A601260835
:1000B000313C031C92282108A7000130A800AA01A6
:1000C000A90119202108A700A801AA018030A900D0
:1000D00019202308A700A70AA70303197328FF30D4
:1000E000A80039206C282208A80039202108A70080
:1000F000A801AA01A90119202108A700A801AA01A5
:100100008030A90019202508A700A70AA703031912
:100110008D28FF30A800392086282408A80039201F
:10012000A60A57280800840183131F30830583160D
:100130008E15073083129F000030660006100430D1
:10014000A100FA30A2000420A10BA1283030A100A8
:100150000430A3004C30A2004D200430A100FA303E
:10016000A2000420A10BAF283030A1000730A3006B
:10017000D030A2004D200430A100FA30A2000420AB
:10018000A10BBD283030A1000630A3004030A200F2
:100190004D200430A100FA30A2000420A10BCB288E
:0401A0009F28630031
:02400E00183F59
:00000001FF
;PIC16F628A
;CRC=AD9E  CREATED="18-ene.-15 17:56"
