:1000000000308A007E2800002A080739F7002A0CF1
:10001000F800F80CF80C1F30F80578082C0784005D
:1000200083132D188317F801F80AF70A1828F80D1A
:10003000F70B1728AB080319202878088004232819
:10004000F8097808800508001230AB02031C372835
:100050002B3084008313FC3080050310800C800C4F
:1000600000080319372835280000800B34280800C1
:100070002508203CA7004E30A8002608031C260FA8
:10008000A802A9012408290203187D282308AA0030
:100090000130AB00AD01AC0104202308AA00AB0184
:1000A000AD018030AC0004202608AA00AA0AAA03E9
:1000B00003195E28FF30AB00242057282508AB0029
:1000C00024202308AA00AB01AD01AC0104202308C1
:1000D000AA00AB01AD018030AC0004202808AA00C2
:1000E000AA0AAA0303197828FF30AB00242071283C
:1000F0002708AB002420A90A4228962884018313EC
:100100001F30830583168E15073083129F00003041
:1001100066000610A2016430A1003030A300143044
:10012000A4002208A6002108A50038286430A107F1
:100130000318A20A22080A3C0318A828FF3A031D44
:10014000A5282108B73C0318A828A2016430A10003
:040150008D28630093
:02400E00103F61
:00000001FF
;PIC16F628A
;CRC=08B6  CREATED="01-ene.-15 16:48"
