:1000000000308A00FB2800000A108A100A118207BB
:1000100049346E3469346334693461346E34643421
:100020006F342E342E342E340A340D3400340A103A
:100030008A100A1182073C343C343C344534723413
:1000400072346F3472343E343E343E340A340D34EC
:1000500000340A108A100A11820744346934733458
:10006000743461346E3463346934613420343D3423
:10007000203425344C3475340A340D3400340610E1
:100080000830F80043280000F8175428F813AB0C88
:1000900003180614031C0610781754287813F80B5D
:1000A00047285228000006141C308400840B562870
:1000B0005928F81B4628781B4E2808002330840056
:1000C00083130008031972280130F800F701F70BB9
:1000D0006728F80B66284A30F700F70B6D28702860
:1000E000800B64280800F801F901F701FA012708DC
:1000F000031D7D282608031997281030A800031037
:10010000A40DA50DF70DFA0D27087A02031D8A2804
:1001100026087702031C93282608F702031CFA031B
:100120002708FA020314F80DF90DA80B7F283D29C2
:10013000AA010408A9002A10831B2A14230EF038F0
:10014000A500A507E23EA600323EA80023080F390D
:10015000A607A607A807E93EA700A707A707220E3C
:100160000F39A707A807A70DA80DA809A80D2208F1
:100170000F39A807A50D0730A4000A30A807A70368
:10018000031CBE28A707A603031CC228A607A503B5
:10019000031CC628A507A403031CCA282430840016
:1001A0008313073029052913840728300402031913
:1001B00029170008F700031DE528291BE528291A3F
:1001C000F728A919E5282030E828A9152912303088
:1001D000F707A3010408A2002310831B2314770848
:1001E000AB003F2022088400831323188317840A5E
:1001F000291FD5287129840183131F308305831695
:100200008E158312061407309F00023066008601A7
:10021000A20122080420A20AF700AB003F200E3002
:100220002202031D09290230A200FA30A3005E2039
:10023000A20B15298530900006150630F700F70B44
:100240001F2900000611861C23298F018E018618A4
:1002500027290F08FA000E08F7000F087A02031D7D
:1002600029297708A2007A08A3002308A5002208FC
:10027000A400A7013A30A60073287908A1007808E5
:10028000A000A108031D48292008033C0318532996
:100290002108003C03185F29FF3A031D5329200859
:1002A000F33C03185F29A20122081720A20AF700D5
:1002B000AB003F200D302202031D54297729A201F3
:1002C00022082920A20AF700AB003F200C302202AE
:1002D000031D6029103084002108A3002008A2001B
:1002E00098280A30AB003F200D30AB003F20023091
:1002F000A200FA30A3005E20A20B79291C2963001A
:02400E00183F59
:00000001FF
;PIC16F628A
;CRC=1B1B  CREATED="01-ene.-15 19:24"
