:1000000002308A00402A0000A400003023078A0042
:1000100024080D3E03188A0A82000034003400349C
:100020000034003400340034003400347E34FF34B3
:10003000C334C334C334C334E73466340034FF34C8
:10004000FF34DB34DB34DB34DB34C334C33400341F
:100050007E34FF34C334C334C334C334E73466342A
:100060000034E034703430343F343F343034703452
:10007000E0340034C034C034C034FF34FF34C03402
:10008000C034C0340034003400340034003442340E
:10009000DB34DB34DB34DB34FF34663400340034EF
:1000A00000340034C334C334C334FF34FF34C334A6
:1000B000C334C3340034FF34FF34CC34CC34CC34B8
:1000C000CC34FC3478340034FF34FF3460343034C2
:1000D00018340C34FF34FF3400340034003400345E
:1000E0007234FB34DB34DB34DB34DB34DF344E346A
:1000F00000347E34FF34C334C334C334C334E734F0
:1001000066340034FF34FF34DB34DB34DB34DB347F
:10011000C334C33400340034003400347E34FF343C
:10012000DB34DB34DB34DB34DB344E340034C334D7
:10013000C334C334FF34FF34C334C334C334003452
:10014000FF34FF346034383438346034FF34FF34E3
:10015000003400344234DB34DB34DB34DB34FF3452
:1001600066340034003400340034C334C334C33440
:10017000FF34FF34C334C334C3340034FC34FE349E
:100180000334033403340334FE34FC3400347F344A
:10019000FF34CC34CC34CC34CC34FF347F34003412
:1001A000FF34FF346034303418340C34FF34FF34FF
:1001B0000034003400340034FF34FF346034383409
:1001C00038346034FF34FF3400347E34FF34C334B9
:1001D000C334C334C334FF347E340034FF34FF34BB
:1001E000D834DC34DE34DB34F93470340034FF349A
:1001F000FF34DB34DB34DB34DB34C334C33400346E
:10020000FF34FF346034303418340C34FF34FF349E
:1002100000347E34FF34C334C334C334C334FF34B6
:100220007E340034003400340034003400340034B0
:10023000003400340034003400340034FF34FF3420
:100240006034383438346034FF34FF3400347E3462
:10025000FF34C334C334C334C334FF347E34003476
:10026000FF34FF348134813481348134FF347E346F
:1002700000347E34FF34C334C334C334C334FF3456
:100280007E340034003400340034033433346334B7
:10029000FF347F34033403340334003433308400B8
:1002A0000008031960290230A100A001A00B562903
:1002B000A10B55299730A000A00B5C29800B532976
:1002C00008000830B402031C702934308400031085
:1002D000800C0008031970296E290000800B6D291D
:1002E0000800280B7A29AA01A9010130AE000A30C2
:1002F000AD0086292808023C031D86290130AA008A
:100300000B30A9000130AE004130AD0008302907A4
:10031000AB002A08AC000318AC0AAF012F08073C59
:10032000031C962906170613AF0A8E29B001300860
:10033000073C031CC52986170617861306132A08CF
:10034000B2002908B10032082C02031CC329031D86
:10035000AD292B0831020318C3293208A300310844
:100360000420A10087000230B3004E210230B30008
:10037000F830B4006121B30BB82906170613B10A8F
:100380000319B20AA329B00A9729A90A0319AA0ACC
:10039000AB0A0319AC0A2C082E02031CD529031D35
:1003A00096292D082B02031C962908002B08553C82
:1003B000031CE329031DE0292A08553C031CE329FB
:1003C0000130A1003F2A2B08613C031CF029031DCA
:1003D000ED292A085C3C031CF0290330A1003F2AC8
:1003E0002B086E3C031CFD29031DFA292A08073C33
:1003F000031CFD290730A1003F2A2B087B3C031C6E
:100400000A2A031D072A2A088A3C031C0A2A0F30DD
:10041000A1003F2A2B088A3C031C172A031D142A1B
:100420002A08353C031C172A1F30A1003F2A2B083D
:100430009A3C031C242A031D212A2A08913C031CF0
:10044000242A3F30A1003F2A2B08AD3C031C312A4F
:10045000031D2E2A2A08A23C031C312A7F30A1004A
:100460003F2A2B08C53C03183F2AFF3A031D3C2AAC
:100470002A08113C03183F2AFF30A1003F2AB02A66
:1004800084011F308305713083168F000F0883129B
:1004900003171F109F101F119F1103131F1300300C
:1004A00003179E0099019A0183169E0183129B01F6
:1004B00003138D12713083168F000F0883120317F8
:1004C0001F109F101F119F1103131F1704300317D4
:1004D0009E00831603131F169F161F1383129F136C
:1004E0001F140830A1001F08C33921049F000930E0
:1004F000A000A00B792A7C2A83168701831287012A
:1005000030308316860083128601FF308316850003
:1005100001308312A80071210230A8007121A601C8
:100520002608073C031C982A06170613A60A902AD9
:100530008617061786130613A7012708073C031C16
:10054000C02A9F149F18A22A1E08A30083161E0803
:100550008312A8001E08A900AB002808AA00D6290B
:10056000210887000130B3004E210230A8009430EA
:10057000B4006121A80BB72A06170613A70A9D2A03
:04058000982A630052
:02400E00D43CA0
:00000001FF
;PIC16F677
;CRC=24B3  CREATED="26-sep.-15 23:04"
